:100000000C9463000C948B000C948B000C945105A1
:100010000C9451050C9451050C948B000C948B009E
:100020000C948B000C948B000C948B000C948B0024
:100030000C948B000C948B000C948B000C948B0014
:100040000C94AF040C948B000C941F050C94F904D1
:100050000C948B000C948B000C948B000C948B00F4
:100060000C948B000C948B000000000024002700EF
:100070002A0000000008000201000003040700003D
:1000800000000000000000000000230026002900FE
:1000900000000000250028002B00040404040404D0
:1000A0000404020202020202030303030303010227
:1000B00004081020408001020408102001020408F6
:1000C0001020CB05270811241FBECFEFD8E0DEBFDC
:1000D000CDBF22E0A0EAB1E001C01D92A53BB2076E
:1000E000E1F711E0A0E0B1E0E8E6F5E102C005903B
:1000F0000D92A03AB107D9F710E0C2E6D0E004C0F3
:100100002197FE010E94A508C136D107C9F70E94B8
:1001100086060C94A70A0C940000FC01538D448DB4
:10012000252F30E0842F90E0821B930B541710F0A2
:10013000CF96089501970895FC01918D828D9817AF
:1001400061F0828DDF01A80FB11D5D968C91928DBB
:100150009F5F9F73928F90E008958FEF9FEF0895B8
:10016000FC01918D828D981731F0828DE80FF11D81
:10017000858D90E008958FEF9FEF0895FC01918D9C
:10018000228D892F90E0805C9F4F821B91098F7395
:1001900099270895FC01848DDF01A80FB11DA35A92
:1001A000BF4F2C91848D90E001968F739927848F97
:1001B000A689B7892C93A089B1898C9183708064BA
:1001C0008C93938D848D981306C00288F389E02D5B
:1001D00080818F7D80830895EF92FF920F931F930C
:1001E000CF93DF93EC0181E0888F9B8D8C8D9813EA
:1001F00005C0E889F989808185FD26C0F62E0B8D22
:1002000010E00F5F1F4F0F731127E02E8C8DE81247
:100210000CC00FB607FCFACFE889F989808185FF09
:10022000F5CFCE010E94CA00F1CF8B8DFE01E80F01
:10023000F11DE35AFF4FF0829FB7F8940B8FEA89C4
:10024000FB89808180620AC09FB7F894EE89FF899C
:100250006083E889F98980818370806480839FBF8F
:1002600081E090E0DF91CF911F910F91FF90EF908F
:100270000895CF93DF93EC01888D8823C9F0EA8934
:10028000FB89808185FD05C0A889B9898C9186FD8F
:100290000FC00FB607FCF5CF808185FFF2CFA8898C
:1002A000B9898C9185FFEDCFCE010E94CA00E7CFBE
:1002B000DF91CF9108958FEE91E00E94BE0021E082
:1002C000892B09F420E0822F089580E090E0892BAB
:1002D00029F00E945B0181110C9400000895833085
:1002E00081F028F4813099F08230A1F008958730B0
:1002F000A9F08830B9F08430D1F4809180008F7DEE
:1003000003C0809180008F7780938000089584B52A
:100310008F7702C084B58F7D84BD08958091B00031
:100320008F7703C08091B0008F7D8093B0000895D7
:10033000CF93DF93282F30E0F901EE58FF4F8491DF
:10034000F901E255FF4FD491F901E656FF4FC491F0
:10035000CC2391F081110E946F01EC2FF0E0EE0FA1
:10036000FF1FEA57FF4FA591B491EC91ED2381E077
:1003700090E021F480E002C080E090E0DF91CF9136
:1003800008951F93CF93DF93282F30E0F901EE58A3
:10039000FF4F8491F901E255FF4FD491F901E656E0
:1003A000FF4FC491CC23C1F0162F81110E946F0121
:1003B000EC2FF0E0EE0FFF1FE057FF4FA591B49137
:1003C0009FB7F894111104C08C91D095D82302C026
:1003D000EC91DE2BDC939FBFDF91CF911F910895AD
:1003E000CF93DF9390E0FC01E255FF4F2491FC0195
:1003F000E656FF4F8491882361F190E0880F991FA2
:10040000FC01E859FF4FC591D491FC01E057FF4F23
:10041000A591B491611109C09FB7F8948881209586
:1004200082238883EC912E230BC0623061F49FB746
:10043000F8948881322F309583238883EC912E2B7A
:100440002C939FBF06C08FB7F894E8812E2B28838A
:100450008FBFDF91CF9108953FB7F8948091EB0162
:100460009091EC01A091ED01B091EE0126B5A89B11
:1004700005C02F3F19F00196A11DB11D3FBFBA2F36
:10048000A92F982F8827820F911DA11DB11DBC0196
:10049000CD0142E0660F771F881F991F4A95D1F75B
:1004A00008958F929F92AF92BF92CF92DF92EF9278
:1004B000FF926B017C010E942C024B015C01C11474
:1004C000D104E104F104F1F00E942C02DC01CB0123
:1004D00088199909AA09BB09883E9340A105B1056D
:1004E00070F321E0C21AD108E108F10888EE880E05
:1004F00083E0981EA11CB11CC114D104E104F104D5
:1005000019F7DDCFFF90EF90DF90CF90BF90AF90C5
:100510009F908F900895CF92DF92EF92FF920F936A
:100520001F93CF93DF936C017A018B01C0E0D0E081
:10053000CE15DF0581F0D8016D918D01D601ED91C9
:10054000FC910190F081E02DC6010995892B11F0F5
:100550002196EECF7E01C701DF91CF911F910F91C0
:10056000FF90EF90DF90CF9008952091E2013091BD
:10057000E3012817390771F49091E0018091E101BE
:10058000981741F0E091E001F0E0E056FE4F8081E5
:1005900090E008958FEF9FEF089508951F93CF93F4
:1005A000DF93DC015C968D919C915D97009739F407
:1005B00021E030E013963C932E9312973BC0519666
:1005C000ED91FC91529750962C915097322F309587
:1005D0001FB75E964C915E97742F727041FD6095C7
:1005E000F8944081772311F0422B01C043234083CC
:1005F000EC012197F1F748E0508160FF02C0522BD7
:1006000001C053235083EC012197F1F766954150C7
:1006100099F78081772319F08323808302C0282BE8
:1006200020831FBF5C968D919C915D970197F1F798
:1006300081E090E0DF91CF911F9108952091E20138
:100640003091E3012817390771F48091E10120917D
:10065000E00190E0805C9F4F821B910960E470E0B4
:100660000E947D08089580E090E008952091E201C5
:100670003091E30128173907B9F49091E001809196
:10068000E101981789F0E091E001F0E0E056FE4FBB
:1006900080812091E00130E02F5F3F4F2F7333279F
:1006A0002093E00190E008958FEF9FEF0895089563
:1006B00080E090E0089542E050E06BE271E08CE869
:1006C00092E00C948B02CF93DF93FC01448155811F
:1006D000608171818CE892E00E948B02EC010E94A3
:1006E0005B038C0F9D1FDF91CF910895CF93DF9314
:1006F000EC0188819981009711F00E9443091982C9
:1007000018821D821C821B821A82DF91CF9108956C
:10071000FC01808191810C9443090E94920A0F93FD
:100720001F93CF93DF93EC0188819981009729F083
:100730002A813B812617370788F48B016F5F7F4F33
:100740000E94CC09009761F0998388831B830A83F8
:100750002C813D81232B11F4FC01108281E001C02A
:1007600080E0DF91CF911F910F910895EF92FF925A
:100770000F931F93CF93DF93EC017B018A01BA01A2
:100780000E948F03811104C0CE010E94760307C02E
:100790001D830C83B701888199810E94A00ACE0134
:1007A000DF91CF911F910F91FF90EF900895FC0181
:1007B00011821082138212821582148261157105D2
:1007C00051F0FB0101900020E9F73197AF01461B82
:1007D000570B0C94B6030895CF92DF92EF92FF92DD
:1007E0000F931F93CF93DF93CDB7DEB72C970FB640
:1007F000F894DEBF0FBECDBF7C016B016EE271E0ED
:10080000CE0101960E94D703F60104811581C080B4
:10081000D180C114D10409F498C001151105B9F0B3
:100820008D819E81080F191FB801CE0101960E948B
:100830008F03882309F489C029813A818D819E81A3
:10084000B601820F931F0E94A00A1E830D830D81A3
:100850001E810F5F1F4FB801CE0101960E948F03CA
:10086000882309F477C029813A818D819E816AE3CA
:1008700071E0820F931F0E94A00A1E830D831886C9
:100880001F821A8619861C861B8669817A816115EA
:10089000710531F04D815E81CE0107960E94B6034D
:1008A000CE0101960E9488034AE050E06CE371E0BB
:1008B0008CE892E00E948B0260E570E080E090E0BE
:1008C0000E945102CE0107960E94630360E570E02A
:1008D00080E090E00E945102C7010E94630360E53E
:1008E00070E080E090E00E9451026AE18CE892E0C2
:1008F0000E94CE020E945B0360E570E080E090E021
:100900000E9451020E945B0364E670E080E090E088
:100910000E94510242E150E067E471E08FEE91E005
:100920000E948B02CE0107960E9488032C960FB678
:10093000F894DEBF0FBECDBFDF91CF911F910F9115
:10094000FF90EF90DF90CF900895CE0101960E9426
:1009500076037DCFCE0101960E94760390CF1F9241
:100960000F920FB60F9211242F933F938F939F9363
:10097000AF93BF938091E7019091E801A091E901C5
:10098000B091EA013091E60123E0230F2D3720F4E6
:100990000196A11DB11D05C026E8230F0296A11DD9
:1009A000B11D2093E6018093E7019093E801A093A5
:1009B000E901B093EA018091EB019091EC01A091E3
:1009C000ED01B091EE010196A11DB11D8093EB01E7
:1009D0009093EC01A093ED01B093EE01BF91AF9124
:1009E0009F918F913F912F910F900FBE0F901F906D
:1009F00018951F920F920FB60F9211242F933F93C9
:100A00004F935F936F937F938F939F93AF93BF9316
:100A1000EF93FF938FEE91E00E94CA00FF91EF9158
:100A2000BF91AF919F918F917F916F915F914F9106
:100A30003F912F910F900FBE0F901F9018951F920E
:100A40000F920FB60F9211242F938F939F93EF93D2
:100A5000FF93E091FF01F09100028081E091050297
:100A6000F091060282FD12C09081809108028F5F92
:100A70008F7320910902821751F0E0910802F0E093
:100A8000E151FE4F958F8093080201C08081FF9154
:100A9000EF919F918F912F910F900FBE0F901F900C
:100AA00018951F920F920FB60F9211242F933F9318
:100AB0004F935F936F937F938F939F93AF93BF9366
:100AC000EF93FF93E091E201F091E301309709F495
:100AD00051C0968DA685B785858591FF04C09C91F0
:100AE000892329F447C09C91892309F043C0A38935
:100AF000B4899C918589809589238C93868997896F
:100B00000197F1F7608D718DA685B785558538E021
:100B100020E0CB010197F1F7822F90E09595879522
:100B2000282F4C91452309F02068315091F7868D8C
:100B300081FD20958091E10190E001968F739927C6
:100B40003091E001381749F0A091E101B0E0A056E2
:100B5000BE4F2C938093E10103C0868D8160868F08
:100B6000828D938D0197F1F7A389B4899C91858932
:100B7000892B8C93FF91EF91BF91AF919F918F91B2
:100B80007F916F915F914F913F912F910F900FBE89
:100B90000F901F901895CF92DF92EF92FF921092D4
:100BA000F2011092F10198EEC92E93E0D92EE12CBA
:100BB000F12CC092F301D092F401E092F501F09291
:100BC000F6018BE091E09093F0018093EF0185ECCA
:100BD00090E09093FC018093FB0184EC90E0909373
:100BE000FE018093FD0180EC90E0909300028093E1
:100BF000FF0181EC90E0909302028093010282EC6D
:100C000090E0909304028093030286EC90E090932E
:100C100006028093050210920802109209021092B7
:100C20000A0210920B026AE571E08BEA92E00E94E0
:100C3000D70310928F0210928E02C0929002D0922F
:100C40009102E0929202F09293028DE191E09093F2
:100C50008D0280938C021092A3021092A202109235
:100C6000A5021092A4021092A7021092A60210925E
:100C7000A9021092A8026091AA026E7F6D7F609314
:100C8000AA026695617081E0682789E00E94C1012F
:100C900061E089E00E94F001E7EBF0E0E491E0938D
:100CA0009C02E3EAF0E0E491F0E0EE0FFF1FE05772
:100CB000FF4F8591949190939E0280939D0260E0F6
:100CC00088E00E94F0018091AA0281FD04C061E0E9
:100CD00088E00E94C10188E080939802E6EBF0E092
:100CE000E491E0939902E2EAF0E0E491F0E0EE0FA3
:100CF000FF1FEA57FF4F8591949190939B02809339
:100D00009A02FF90EF90DF90CF900895CF93DF93FA
:100D1000CDB7DEB72C970FB6F894DEBF0FBECDBFB0
:100D2000789484B5826084BD84B5816084BD85B5C6
:100D3000826085BD85B5816085BD80916E008160D2
:100D400080936E0010928100809181008260809378
:100D5000810080918100816080938100809180007A
:100D60008160809380008091B10084608093B100A5
:100D70008091B00081608093B00080917A0084609F
:100D800080937A0080917A00826080937A008091CB
:100D90007A00816080937A0080917A0080688093E5
:100DA0007A001092C1001092A7021092A60210922F
:100DB000A5021092A4021092A3021092A2028DE941
:100DC00091E09093A9028093A802909198029631A5
:100DD00008F058C02DEB30E03093A3022093A2021C
:100DE0002BE931E03093A5022093A4022CE231E0FC
:100DF0003093A7022093A60240916800983058F0E3
:100E000031E09E3008F430E021E0822F01C0880FED
:100E10003A95EAF701C084E0842B8093680098300B
:100E200038F09E3040F0963148F020E030E008C0C5
:100E30002DE630E005C02BE630E002C02CE630E0C5
:100E40003093A00220939F02983030F481E001C0DB
:100E5000880F9A95EAF70EC0292F30E09E3018F4DB
:100E60002850310902C02E50310981E001C0880F9D
:100E70002A95EAF78093A1028091A8029091A90295
:100E80000197F1F78091A6029091A702892B49F171
:100E9000E091E201F091E30182E0EC38F80709F11A
:100EA000309739F0A389B4899C91858980958923ED
:100EB0008C938091AA028E7F8093AA021092E10106
:100EC0001092E0018CE892E09093E3018093E201BC
:100ED000E0919F02F091A00290818091A102892B64
:100EE000808360E083E00E94F00160E084E00E9483
:100EF000F00161E08DE00E94F00160E08DE00E9471
:100F0000C1011A8219821C821B821E821D8260917D
:100F1000AB027091AC026115710541F04091AF02D6
:100F20005091B002CE0101960E94B60368E671E0CE
:100F3000CE0107960E94D703BE016F5F7F4FCE019F
:100F400007960E94EC03CE0107960E948803CE010B
:100F500001960E94880380910001882309F474C0DF
:100F600083E00E9498017C0181E091E0E916F104A0
:100F700009F080E08093E50184E00E9498010197E8
:100F800069F468E873E180E090E00E94510284E037
:100F90000E94980111E0019709F010E01093E4011C
:100FA000EA94EF2881F561E08DE00E94C1011A8288
:100FB00019821C821B821E821D826091AB0270917D
:100FC000AC026115710541F04091AF025091B00241
:100FD000CE0101960E94B60369E771E0CE01079643
:100FE0000E94D703BE016F5F7F4FCE0107960E941C
:100FF000EC03CE0107960E948803CE0101960E9461
:101000008803109200018091E401882309F4A3CFA2
:1010100061E08DE00E94C1011A8219821C821B824C
:101020001E821D826091AB027091AC026115710548
:1010300041F04091AF025091B002CE0101960E9462
:10104000B6036CE871E074CF0E94650184CF8DE136
:1010500091E090938D0280938C028091E2019091B7
:10106000E3018C58924071F4E0919F02F091A0024C
:1010700090818091A1028095892380831092E30161
:101080001092E2018BEA92E00C9488032F923F9237
:101090004F925F926F927F928F929F92AF92BF9288
:1010A000CF92DF92EF92FF920F931F93CF93DF9334
:1010B000CDB7DEB7CA1BDB0B0FB6F894DEBF0FBE91
:1010C000CDBF09942A88398848885F846E847D84DE
:1010D0008C849B84AA84B984C884DF80EE80FD80E0
:1010E0000C811B81AA81B981CE0FD11D0FB6F89456
:1010F000DEBF0FBECDBFED01089597FB072E16F49E
:10110000009407D077FD09D00E94910807FC05D014
:101110003EF4909581959F4F0895709561957F4F0E
:101120000895AA1BBB1B51E107C0AA1FBB1FA6172E
:10113000B70710F0A61BB70B881F991F5A95A9F780
:1011400080959095BC01CD010895EE0FFF1F05908D
:10115000F491E02D09940F931F93CF93DF93823086
:10116000910510F482E090E0E091B302F091B402B6
:1011700020E030E0A0E0B0E0309719F140815181EB
:101180000281138148175907C8F08417950769F43D
:10119000109731F012960C93129713961C9327C058
:1011A0000093B3021093B40222C02115310519F047
:1011B0004217530718F49A01BD01EF01DF01F8014E
:1011C000DBCF21153105F9F0281B390B243031050F
:1011D00080F48A819B816115710521F0FB01938365
:1011E000828304C09093B4028093B302FE013296CE
:1011F00044C0FE01E20FF31F819391932250310905
:10120000398328833AC02091B1023091B202232B56
:1012100041F420910301309104013093B2022093F4
:10122000B10220910101309102012115310541F4F3
:101230002DB73EB74091050150910601241B350B97
:10124000E091B102F091B202E217F307A0F42E1B75
:101250003F0B2817390778F0AC014E5F5F4F24171A
:10126000350748F04E0F5F1F5093B2024093B10212
:101270008193919302C0E0E0F0E0CF01DF91CF9144
:101280001F910F910895CF93DF93009709F481C0C8
:10129000FC01329713821282A091B302B091B40282
:1012A000109781F420813181820F931F2091B10228
:1012B0003091B2022817390751F5F093B202E0934A
:1012C000B10267C0ED0120E030E0CE17DF0740F447
:1012D0004A815B819E0141155105F1F0EA01F5CF8C
:1012E000D383C28340815181840F951FC817D907CA
:1012F00059F488819981840F951F02969183808388
:101300008A819B81938382832115310529F4F0938F
:10131000B402E093B3023DC0E901FB83EA83499143
:101320005991C40FD51FEC17FD0761F4808191819D
:10133000840F951F0296E9019983888382819381A6
:101340009B838A83E0E0F0E012968D919C91139745
:10135000009719F0FD01DC01F7CF8D919C91119759
:101360009D012E5F3F4F820F931F2091B10230915C
:10137000B2022817390769F4309729F41092B402A1
:101380001092B30202C013821282B093B202A093F1
:10139000B102DF91CF910895A0E0B0E0E2EDF9E075
:1013A0000C944A08EC01009721F4CB010E94AB0891
:1013B000B4C0FC01E60FF71F9C0122503109E2176F
:1013C000F30708F4A8C0D9010D911C9111970617D5
:1013D0001707B0F00530110508F49BC0C801049749
:1013E0008617970708F495C002501109061B170BC2
:1013F000019311936D937C93CF010E94430989C09F
:101400005B01A01AB10A4C01800E911EA091B3029B
:10141000B091B402612C712CE12CF12C109709F4DD
:1014200046C08D919C911197A815B905B1F56C0135
:1014300042E0C40ED11CCA14DB0478F14C018A18B6
:101440009B08640142E0C40ED11C1296BC90129716
:101450001396AC91B5E0CB16D10440F0B282A383D1
:1014600091828082D9016D937C9309C00E5F1F4FDA
:10147000800F911FF90191838083EB2DFA2FE114E6
:10148000F10431F0D7011396FC93EE93129741C00B
:10149000F093B402E093B3023CC06816790608F4F6
:1014A0003C017D0112960D90BC91A02DB7CF80918B
:1014B000B1029091B20288169906E1F46616770699
:1014C000C8F48091010190910201009741F48DB719
:1014D0009EB74091050150910601841B950BE817BA
:1014E000F907C8F4F093B202E093B102F9017183F5
:1014F00060830FC0CB010E94AB087C01009759F0BC
:10150000A801BE010E94970ACE010E944309C701AB
:1015100004C0CE0102C080E090E0CDB7DEB7EEE0BF
:101520000C94660881E090E0F8940C94A70AFB0103
:10153000DC0102C001900D9241505040D8F708954F
:10154000FB01DC0101900D920020E1F7089510E00D
:10155000C2E6D0E004C0FE010E94A5082196C33671
:08156000D107C9F7F894FFCF91
:10156800010000B502800000000000EC008B028D35
:10157800003901BE009C00B00000000000CE028BC4
:10158800025803CD021E033603B5020D0A0041546A
:10159800202B20434D4753203D20220041542B430C
:1015A8004D47463D310D0073656E64696E67206D69
:1015B80065737361676520746F002B5A5A78787861
:1015C80078787878787878007468652064657669C2
:1015D8006365207265736574007468652062616272
:1015E8007920697320637279696E67007468652071
:1015F80062616279206973206D6F76696E67000099
:107E0000112484B714BE81FFF0D085E080938100F7
:107E100082E08093C00088E18093C10086E0809377
:107E2000C20080E18093C4008EE0C9D0259A86E02C
:107E300020E33CEF91E0309385002093840096BBD3
:107E4000B09BFECF1D9AA8958150A9F7CC24DD24C4
:107E500088248394B5E0AB2EA1E19A2EF3E0BF2EE7
:107E6000A2D0813461F49FD0082FAFD0023811F036
:107E7000013811F484E001C083E08DD089C08234E0
:107E800011F484E103C0853419F485E0A6D080C0E4
:107E9000853579F488D0E82EFF2485D0082F10E0AE
:107EA000102F00270E291F29000F111F8ED06801E7
:107EB0006FC0863521F484E090D080E0DECF843638
:107EC00009F040C070D06FD0082F6DD080E0C81688
:107ED00080E7D80618F4F601B7BEE895C0E0D1E017
:107EE00062D089930C17E1F7F0E0CF16F0E7DF06D8
:107EF00018F0F601B7BEE89568D007B600FCFDCFD4
:107F0000A601A0E0B1E02C9130E011968C91119780
:107F100090E0982F8827822B932B1296FA010C0160
:107F200087BEE89511244E5F5F4FF1E0A038BF0790
:107F300051F7F601A7BEE89507B600FCFDCF97BE46
:107F4000E89526C08437B1F42ED02DD0F82E2BD052
:107F50003CD0F601EF2C8F010F5F1F4F84911BD097
:107F6000EA94F801C1F70894C11CD11CFA94CF0C13
:107F7000D11C0EC0853739F428D08EE10CD085E9AC
:107F80000AD08FE07ACF813511F488E018D01DD067
:107F900080E101D065CF982F8091C00085FFFCCF94
:107FA0009093C60008958091C00087FFFCCF809118
:107FB000C00084FD01C0A8958091C6000895E0E648
:107FC000F0E098E1908380830895EDDF803219F02E
:107FD00088E0F5DFFFCF84E1DECF1F93182FE3DFCA
:107FE0001150E9F7F2DF1F91089580E0E8DFEE27F6
:047FF000FF270994CA
:027FFE00040479
:0400000300007E007B
:00000001FF
